{
  "contractName": "HashedTimelockERC721",
  "abi": [
    {
      "anonymous": false,
      "inputs": [
        {
          "indexed": true,
          "internalType": "bytes32",
          "name": "contractId",
          "type": "bytes32"
        },
        {
          "indexed": true,
          "internalType": "address",
          "name": "sender",
          "type": "address"
        },
        {
          "indexed": true,
          "internalType": "address",
          "name": "receiver",
          "type": "address"
        },
        {
          "indexed": false,
          "internalType": "address",
          "name": "tokenContract",
          "type": "address"
        },
        {
          "indexed": false,
          "internalType": "uint256",
          "name": "tokenId",
          "type": "uint256"
        },
        {
          "indexed": false,
          "internalType": "bytes32",
          "name": "hashlock",
          "type": "bytes32"
        },
        {
          "indexed": false,
          "internalType": "uint256",
          "name": "timelock",
          "type": "uint256"
        },
        {
          "indexed": false,
          "internalType": "bytes32",
          "name": "forwardlink",
          "type": "bytes32"
        }
      ],
      "name": "HTLCERC721New",
      "type": "event"
    },
    {
      "anonymous": false,
      "inputs": [
        {
          "indexed": true,
          "internalType": "bytes32",
          "name": "contractId",
          "type": "bytes32"
        }
      ],
      "name": "HTLCERC721Refund",
      "type": "event"
    },
    {
      "anonymous": false,
      "inputs": [
        {
          "indexed": true,
          "internalType": "bytes32",
          "name": "contractId",
          "type": "bytes32"
        }
      ],
      "name": "HTLCERC721Withdraw",
      "type": "event"
    },
    {
      "constant": false,
      "inputs": [
        {
          "internalType": "address",
          "name": "_receiver",
          "type": "address"
        },
        {
          "internalType": "bytes32",
          "name": "_hashlock",
          "type": "bytes32"
        },
        {
          "internalType": "uint256",
          "name": "_timelock",
          "type": "uint256"
        },
        {
          "internalType": "address",
          "name": "_tokenContract",
          "type": "address"
        },
        {
          "internalType": "uint256",
          "name": "_tokenId",
          "type": "uint256"
        },
        {
          "internalType": "bytes32",
          "name": "_forwardlink",
          "type": "bytes32"
        }
      ],
      "name": "newContract",
      "outputs": [
        {
          "internalType": "bytes32",
          "name": "contractId",
          "type": "bytes32"
        }
      ],
      "payable": false,
      "stateMutability": "nonpayable",
      "type": "function"
    },
    {
      "constant": false,
      "inputs": [
        {
          "internalType": "bytes32",
          "name": "_contractId",
          "type": "bytes32"
        },
        {
          "internalType": "bytes32",
          "name": "_preimage",
          "type": "bytes32"
        }
      ],
      "name": "withdraw",
      "outputs": [
        {
          "internalType": "bool",
          "name": "",
          "type": "bool"
        }
      ],
      "payable": false,
      "stateMutability": "nonpayable",
      "type": "function"
    },
    {
      "constant": false,
      "inputs": [
        {
          "internalType": "bytes32",
          "name": "_contractId",
          "type": "bytes32"
        }
      ],
      "name": "refund",
      "outputs": [
        {
          "internalType": "bool",
          "name": "",
          "type": "bool"
        }
      ],
      "payable": false,
      "stateMutability": "nonpayable",
      "type": "function"
    },
    {
      "constant": true,
      "inputs": [
        {
          "internalType": "bytes32",
          "name": "_contractId",
          "type": "bytes32"
        }
      ],
      "name": "getContract",
      "outputs": [
        {
          "internalType": "address",
          "name": "sender",
          "type": "address"
        },
        {
          "internalType": "address",
          "name": "receiver",
          "type": "address"
        },
        {
          "internalType": "address",
          "name": "tokenContract",
          "type": "address"
        },
        {
          "internalType": "uint256",
          "name": "tokenId",
          "type": "uint256"
        },
        {
          "internalType": "bytes32",
          "name": "hashlock",
          "type": "bytes32"
        },
        {
          "internalType": "uint256",
          "name": "timelock",
          "type": "uint256"
        },
        {
          "internalType": "bool",
          "name": "withdrawn",
          "type": "bool"
        },
        {
          "internalType": "bool",
          "name": "refunded",
          "type": "bool"
        },
        {
          "internalType": "bytes32",
          "name": "preimage",
          "type": "bytes32"
        },
        {
          "internalType": "uint256",
          "name": "blocknumber",
          "type": "uint256"
        },
        {
          "internalType": "bytes32",
          "name": "forwardlink",
          "type": "bytes32"
        }
      ],
      "payable": false,
      "stateMutability": "view",
      "type": "function"
    }
  ],
  "bytecode": "0x608060405234801561001057600080fd5b506115e8806100206000396000f3fe608060405234801561001057600080fd5b506004361061004c5760003560e01c806363615149146100515780637249fbb6146100a1578063c4d3c201146100e7578063e16c7d9814610187575b600080fd5b6100876004803603604081101561006757600080fd5b81019080803590602001909291908035906020019092919050505061029b565b604051808215151515815260200191505060405180910390f35b6100cd600480360360208110156100b757600080fd5b81019080803590602001909291905050506107a7565b604051808215151515815260200191505060405180910390f35b610171600480360360c08110156100fd57600080fd5b81019080803573ffffffffffffffffffffffffffffffffffffffff1690602001909291908035906020019092919080359060200190929190803573ffffffffffffffffffffffffffffffffffffffff1690602001909291908035906020019092919080359060200190929190505050610c36565b6040518082815260200191505060405180910390f35b6101b36004803603602081101561019d57600080fd5b8101908080359060200190929190505050611325565b604051808c73ffffffffffffffffffffffffffffffffffffffff1673ffffffffffffffffffffffffffffffffffffffff1681526020018b73ffffffffffffffffffffffffffffffffffffffff1673ffffffffffffffffffffffffffffffffffffffff1681526020018a73ffffffffffffffffffffffffffffffffffffffff1673ffffffffffffffffffffffffffffffffffffffff16815260200189815260200188815260200187815260200186151515158152602001851515151581526020018481526020018381526020018281526020019b50505050505050505050505060405180910390f35b6000826102a781611488565b610319576040517f08c379a00000000000000000000000000000000000000000000000000000000081526004018080602001828103825260198152602001807f636f6e7472616374496420646f6573206e6f742065786973740000000000000081525060200191505060405180910390fd5b8383600281604051602001808281526020019150506040516020818303038152906040526040518082805190602001908083835b60208310610370578051825260208201915060208101905060208303925061034d565b6001836020036101000a038019825116818451168082178552505050505050905001915050602060405180830381855afa1580156103b2573d6000803e3d6000fd5b5050506040513d60208110156103c757600080fd5b81019080805190602001909291905050506000808481526020019081526020016000206004015414610461576040517f08c379a000000000000000000000000000000000000000000000000000000000815260040180806020018281038252601c8152602001807f686173686c6f636b206861736820646f6573206e6f74206d617463680000000081525060200191505060405180910390fd5b856000151560008083815260200190815260200160002060060160009054906101000a900460ff161515146104fe576040517f08c379a000000000000000000000000000000000000000000000000000000000815260040180806020018281038252601f8152602001807f776974686472617761626c653a20616c72656164792077697468647261776e0081525060200191505060405180910390fd5b6000151560008083815260200190815260200160002060060160019054906101000a900460ff1615151461059a576040517f08c379a000000000000000000000000000000000000000000000000000000000815260040180806020018281038252601e8152602001807f776974686472617761626c653a20616c726561647920726566756e646564000081525060200191505060405180910390fd5b426000808381526020019081526020016000206005015411610607576040517f08c379a00000000000000000000000000000000000000000000000000000000081526004018080602001828103825260318152602001806115836031913960400191505060405180910390fd5b6000806000898152602001908152602001600020905086816007018190555060018160060160006101000a81548160ff0219169083151502179055504381600801819055508060020160009054906101000a900473ffffffffffffffffffffffffffffffffffffffff1673ffffffffffffffffffffffffffffffffffffffff166323b872dd308360010160009054906101000a900473ffffffffffffffffffffffffffffffffffffffff1684600301546040518463ffffffff1660e01b8152600401808473ffffffffffffffffffffffffffffffffffffffff1673ffffffffffffffffffffffffffffffffffffffff1681526020018373ffffffffffffffffffffffffffffffffffffffff1673ffffffffffffffffffffffffffffffffffffffff1681526020018281526020019350505050600060405180830381600087803b15801561075357600080fd5b505af1158015610767573d6000803e3d6000fd5b50505050877fb7358acefea4917350b35745bfd31b7cb6f943bec8883d36d66ab946141c27f660405160405180910390a260019550505050505092915050565b6000816107b381611488565b610825576040517f08c379a00000000000000000000000000000000000000000000000000000000081526004018080602001828103825260198152602001807f636f6e7472616374496420646f6573206e6f742065786973740000000000000081525060200191505060405180910390fd5b823373ffffffffffffffffffffffffffffffffffffffff1660008083815260200190815260200160002060000160009054906101000a900473ffffffffffffffffffffffffffffffffffffffff1673ffffffffffffffffffffffffffffffffffffffff16146108fc576040517f08c379a00000000000000000000000000000000000000000000000000000000081526004018080602001828103825260168152602001807f726566756e6461626c653a206e6f742073656e6465720000000000000000000081525060200191505060405180910390fd5b6000151560008083815260200190815260200160002060060160019054906101000a900460ff16151514610998576040517f08c379a000000000000000000000000000000000000000000000000000000000815260040180806020018281038252601c8152602001807f726566756e6461626c653a20616c726561647920726566756e6465640000000081525060200191505060405180910390fd5b6000151560008083815260200190815260200160002060060160009054906101000a900460ff16151514610a34576040517f08c379a000000000000000000000000000000000000000000000000000000000815260040180806020018281038252601d8152602001807f726566756e6461626c653a20616c72656164792077697468647261776e00000081525060200191505060405180910390fd5b42600080838152602001908152602001600020600501541115610aa2576040517f08c379a00000000000000000000000000000000000000000000000000000000081526004018080602001828103825260238152602001806115606023913960400191505060405180910390fd5b6000806000868152602001908152602001600020905060018160060160016101000a81548160ff0219169083151502179055504381600801819055508060020160009054906101000a900473ffffffffffffffffffffffffffffffffffffffff1673ffffffffffffffffffffffffffffffffffffffff166323b872dd308360000160009054906101000a900473ffffffffffffffffffffffffffffffffffffffff1684600301546040518463ffffffff1660e01b8152600401808473ffffffffffffffffffffffffffffffffffffffff1673ffffffffffffffffffffffffffffffffffffffff1681526020018373ffffffffffffffffffffffffffffffffffffffff1673ffffffffffffffffffffffffffffffffffffffff1681526020018281526020019350505050600060405180830381600087803b158015610be557600080fd5b505af1158015610bf9573d6000803e3d6000fd5b50505050847fba3a5e0fba071659b91c5265298818069091d4c67108a685ee376f779a606fa760405160405180910390a260019350505050919050565b600083833073ffffffffffffffffffffffffffffffffffffffff168273ffffffffffffffffffffffffffffffffffffffff1663081812fc836040518263ffffffff1660e01b81526004018082815260200191505060206040518083038186803b158015610ca257600080fd5b505afa158015610cb6573d6000803e3d6000fd5b505050506040513d6020811015610ccc57600080fd5b810190808051906020019092919050505073ffffffffffffffffffffffffffffffffffffffff1614610d49576040517f08c379a00000000000000000000000000000000000000000000000000000000081526004018080602001828103825260468152602001806114f76046913960600191505060405180910390fd5b86428111610da2576040517f08c379a000000000000000000000000000000000000000000000000000000000815260040180806020018281038252602381526020018061153d6023913960400191505060405180910390fd5b6002338b89898d8d604051602001808773ffffffffffffffffffffffffffffffffffffffff1673ffffffffffffffffffffffffffffffffffffffff1660601b81526014018673ffffffffffffffffffffffffffffffffffffffff1673ffffffffffffffffffffffffffffffffffffffff1660601b81526014018573ffffffffffffffffffffffffffffffffffffffff1673ffffffffffffffffffffffffffffffffffffffff1660601b815260140184815260200183815260200182815260200196505050505050506040516020818303038152906040526040518082805190602001908083835b60208310610eac5780518252602082019150602081019050602083039250610e89565b6001836020036101000a038019825116818451168082178552505050505050905001915050602060405180830381855afa158015610eee573d6000803e3d6000fd5b5050506040513d6020811015610f0357600080fd5b81019080805190602001909291905050509350610f1f84611488565b15610f92576040517f08c379a00000000000000000000000000000000000000000000000000000000081526004018080602001828103825260178152602001807f436f6e747261637420616c72656164792065786973747300000000000000000081525060200191505060405180910390fd5b8673ffffffffffffffffffffffffffffffffffffffff166323b872dd3330896040518463ffffffff1660e01b8152600401808473ffffffffffffffffffffffffffffffffffffffff1673ffffffffffffffffffffffffffffffffffffffff1681526020018373ffffffffffffffffffffffffffffffffffffffff1673ffffffffffffffffffffffffffffffffffffffff1681526020018281526020019350505050600060405180830381600087803b15801561104d57600080fd5b505af1158015611061573d6000803e3d6000fd5b505050506040518061016001604052803373ffffffffffffffffffffffffffffffffffffffff1681526020018b73ffffffffffffffffffffffffffffffffffffffff1681526020018873ffffffffffffffffffffffffffffffffffffffff1681526020018781526020018a81526020018981526020016000151581526020016000151581526020016000801b8152602001600081526020018681525060008086815260200190815260200160002060008201518160000160006101000a81548173ffffffffffffffffffffffffffffffffffffffff021916908373ffffffffffffffffffffffffffffffffffffffff16021790555060208201518160010160006101000a81548173ffffffffffffffffffffffffffffffffffffffff021916908373ffffffffffffffffffffffffffffffffffffffff16021790555060408201518160020160006101000a81548173ffffffffffffffffffffffffffffffffffffffff021916908373ffffffffffffffffffffffffffffffffffffffff160217905550606082015181600301556080820151816004015560a0820151816005015560c08201518160060160006101000a81548160ff02191690831515021790555060e08201518160060160016101000a81548160ff0219169083151502179055506101008201518160070155610120820151816008015561014082015181600901559050508973ffffffffffffffffffffffffffffffffffffffff163373ffffffffffffffffffffffffffffffffffffffff16857febd8f19445348fae57b9592979f45462d74d0aaf8f55581cfd4f5a27abe5acff8a8a8e8e8c604051808673ffffffffffffffffffffffffffffffffffffffff1673ffffffffffffffffffffffffffffffffffffffff1681526020018581526020018481526020018381526020018281526020019550505050505060405180910390a45050509695505050505050565b60008060008060008060008060008060008015156113428d611488565b1515141561139a5760008060008060008060008060008060008a9a508999508898508797508660001b96508595508260001b92508191508060001b90509a509a509a509a509a509a509a509a509a509a509a50611479565b60008060008e815260200190815260200160002090508060000160009054906101000a900473ffffffffffffffffffffffffffffffffffffffff168160010160009054906101000a900473ffffffffffffffffffffffffffffffffffffffff168260020160009054906101000a900473ffffffffffffffffffffffffffffffffffffffff168360030154846004015485600501548660060160009054906101000a900460ff168760060160019054906101000a900460ff16886007015489600801548a600901549b509b509b509b509b509b509b509b509b509b509b50505b91939597999b90929496989a50565b60008073ffffffffffffffffffffffffffffffffffffffff1660008084815260200190815260200160002060000160009054906101000a900473ffffffffffffffffffffffffffffffffffffffff1673ffffffffffffffffffffffffffffffffffffffff161415905091905056fe5468652048544c43206d7573742068617665206265656e2064657369676e6174656420616e20617070726f766564207370656e64657220666f722074686520746f6b656e496474696d656c6f636b2074696d65206d75737420626520696e2074686520667574757265726566756e6461626c653a2074696d656c6f636b206e6f742079657420706173736564776974686472617761626c653a2074696d656c6f636b2074696d65206d75737420626520696e2074686520667574757265a265627a7a723158207cfe9272a2e54cea220ee06036da78baa7f587ba42955c1ec77025503babca4664736f6c63430005100032",
  "source": "pragma solidity ^0.5.0;\n\nimport \"openzeppelin-solidity/contracts/token/ERC721/ERC721.sol\";\n\n/**\n* @title Hashed Timelock Contracts (HTLCs) on Ethereum ERC721 tokens.\n*\n* This contract provides a way to create and keep HTLCs for ERC721 tokens.\n*\n* See HashedTimelock.sol for a contract that provides the same functions\n* for the native ETH token.\n*\n* Protocol:\n*\n*  1) newContract(receiver, hashlock, timelock, tokenContract, tokenId) - a\n*      sender calls this to create a new HTLC on a given token (tokenContract)\n*       for a given token ID. A 32 byte contract id is returned\n*  2) withdraw(contractId, preimage) - once the receiver knows the preimage of\n*      the hashlock hash they can claim the tokens with this function\n*  3) refund() - after timelock has expired and if the receiver did not\n*      withdraw the tokens the sender / creater of the HTLC can get their tokens\n*      back with this function.\n */\ncontract HashedTimelockERC721 {\n\n    event HTLCERC721New(\n        bytes32 indexed contractId,\n        address indexed sender,\n        address indexed receiver,\n        address tokenContract,\n        uint256 tokenId,\n        bytes32 hashlock,\n        uint256 timelock,\n        bytes32 forwardlink\n    );\n    event HTLCERC721Withdraw(bytes32 indexed contractId);\n    event HTLCERC721Refund(bytes32 indexed contractId);\n\n    struct LockContract {\n        address sender;\n        address receiver;\n        address tokenContract;\n        uint256 tokenId;\n        bytes32 hashlock;\n        // locked UNTIL this time. Unit depends on consensus algorithm.\n        // PoA, PoA and IBFT all use seconds. But Quorum Raft uses nano-seconds\n        uint256 timelock;\n        bool withdrawn; //withdraw can either mean burn or withdraw. Burn => receiver = 0x00 or 0x01\n        bool refunded;\n        bytes32 preimage;\n        uint256 blocknumber; //store the blocknumber when the final tx is finalized (either withdraw or refund). For faster retreiving  & verifying\n        bytes32 forwardlink; //store the  forwardlink to the contract on the next blockchain. Because the next address maynot be the same format as on this blockchain. It should be in hashed form (type byte32 instead of address)\n    }\n\n    modifier tokensTransferable(address _token, uint256 _tokenId) {\n        // ensure this contract is approved to transfer the designated token\n        // so that it is able to honor the claim request later\n        require(\n            ERC721(_token).getApproved(_tokenId) == address(this),\n            \"The HTLC must have been designated an approved spender for the tokenId\"\n        );\n        _;\n    }\n    modifier futureTimelock(uint256 _time) {\n        // only requirement is the timelock time is after the last blocktime (now).\n        // probably want something a bit further in the future then this.\n        // but this is still a useful sanity check:\n        require(_time > now, \"timelock time must be in the future\");\n        _;\n    }\n    modifier contractExists(bytes32 _contractId) {\n        require(haveContract(_contractId), \"contractId does not exist\");\n        _;\n    }\n    modifier hashlockMatches(bytes32 _contractId, bytes32 _x) {\n        require(\n            contracts[_contractId].hashlock == sha256(abi.encodePacked(_x)),\n            \"hashlock hash does not match\"\n        );\n        _;\n    }\n    modifier withdrawable(bytes32 _contractId) {\n        // No need for this check, the end point of receiving token must always be c.receiver regardless of who call the function\n        // require(contracts[_contractId].receiver == msg.sender, \"withdrawable: not receiver\");\n        require(contracts[_contractId].withdrawn == false, \"withdrawable: already withdrawn\");\n        // This check needs to be added if claims are allowed after timeout. That is, if the following timelock check is commented out\n        require(contracts[_contractId].refunded == false, \"withdrawable: already refunded\");\n        // if we want to disallow claim to be made after the timeout, uncomment the following line\n         require(contracts[_contractId].timelock > now, \"withdrawable: timelock time must be in the future\");\n        _;\n    }\n    modifier refundable(bytes32 _contractId) {\n        require(contracts[_contractId].sender == msg.sender, \"refundable: not sender\");\n        require(contracts[_contractId].refunded == false, \"refundable: already refunded\");\n        require(contracts[_contractId].withdrawn == false, \"refundable: already withdrawn\");\n        require(contracts[_contractId].timelock <= now, \"refundable: timelock not yet passed\");\n        _;\n    }\n\n    mapping (bytes32 => LockContract) contracts;\n\n    /**\n     * @dev Sender / Payer sets up a new hash time lock contract depositing the\n     * funds and providing the reciever and terms.\n     *\n     * NOTE: _receiver must first call approve() on the token contract.\n     *       See isApprovedOrOwner check in tokensTransferable modifier.\n\n     * @param _receiver Receiver of the tokens.\n     * @param _hashlock A sha-2 sha256 hash hashlock.\n     * @param _timelock UNIX epoch seconds time that the lock expires at.\n     *                  Refunds can be made after this time.\n     * @param _tokenContract ERC20 Token contract address.\n     * @param _tokenId Id of the token to lock up.\n     * @return contractId Id of the new HTLC. This is needed for subsequent\n     *                    calls.\n     */\n    function newContract(\n        address _receiver,\n        bytes32 _hashlock,\n        uint256 _timelock,\n        address _tokenContract,\n        uint256 _tokenId,\n        bytes32 _forwardlink //link to the contract in the next blockchain (if applicable)\n    )\n        external\n        tokensTransferable(_tokenContract, _tokenId)\n        futureTimelock(_timelock)\n        returns (bytes32 contractId)\n    {\n        contractId = sha256(\n            abi.encodePacked(\n                msg.sender,\n                _receiver,\n                _tokenContract,\n                _tokenId,\n                _hashlock,\n                _timelock\n            )\n        );\n\n        // Reject if a contract already exists with the same parameters. The\n        // sender must change one of these parameters (ideally providing a\n        // different _hashlock).\n        if (haveContract(contractId))\n            revert(\"Contract already exists\");\n\n        // This contract becomes the temporary owner of the token\n        ERC721(_tokenContract).transferFrom(msg.sender, address(this), _tokenId);\n\n        contracts[contractId] = LockContract(\n            msg.sender,\n            _receiver,\n            _tokenContract,\n            _tokenId,\n            _hashlock,\n            _timelock,\n            false,\n            false,\n            0x0,\n            0x0,\n            _forwardlink\n        );\n\n        emit HTLCERC721New(\n            contractId,\n            msg.sender,\n            _receiver,\n            _tokenContract,\n            _tokenId,\n            _hashlock,\n            _timelock,\n            _forwardlink\n        );\n    }\n\n    /**\n    * @dev Called by the receiver once they know the preimage of the hashlock.\n    * This will transfer ownership of the locked tokens to their address.\n    *\n    * @param _contractId Id of the HTLC.\n    * @param _preimage sha256(_preimage) should equal the contract hashlock.\n    * @return bool true on success\n     */\n    function withdraw(bytes32 _contractId, bytes32 _preimage)\n        external\n        contractExists(_contractId)\n        hashlockMatches(_contractId, _preimage)\n        withdrawable(_contractId)\n        returns (bool)\n    {\n        LockContract storage c = contracts[_contractId];\n        c.preimage = _preimage;\n        c.withdrawn = true;\n        c.blocknumber = block.number; //for faster verifying the burn tx\n        ERC721(c.tokenContract).transferFrom(address(this), c.receiver, c.tokenId);\n        emit HTLCERC721Withdraw(_contractId);\n        return true;\n    }\n\n    /**\n     * @dev Called by the sender if there was no withdraw AND the time lock has\n     * expired. This will restore ownership of the tokens to the sender.\n     *\n     * @param _contractId Id of HTLC to refund from.\n     * @return bool true on success\n     */\n    function refund(bytes32 _contractId)\n        external\n        contractExists(_contractId)\n        refundable(_contractId)\n        returns (bool)\n    {\n        LockContract storage c = contracts[_contractId];\n        c.refunded = true;\n        c.blocknumber = block.number;\n        ERC721(c.tokenContract).transferFrom(address(this), c.sender, c.tokenId);\n        emit HTLCERC721Refund(_contractId);\n        return true;\n    }\n\n    /**\n     * @dev Get contract details.\n     * @param _contractId HTLC contract id\n     * @return All parameters in struct LockContract for _contractId HTLC\n     */\n    function getContract(bytes32 _contractId)\n        public\n        view\n        returns (\n            address sender,\n            address receiver,\n            address tokenContract,\n            uint256 tokenId,\n            bytes32 hashlock,\n            uint256 timelock,\n            bool withdrawn,\n            bool refunded,\n            bytes32 preimage,\n            uint256 blocknumber,\n            bytes32 forwardlink\n\n        )\n    {\n        if (haveContract(_contractId) == false)\n            return (address(0), address(0), address(0), 0, 0, 0, false, false, 0, 0, 0);\n        LockContract storage c = contracts[_contractId];\n        return (\n            c.sender,\n            c.receiver,\n            c.tokenContract,\n            c.tokenId,\n            c.hashlock,\n            c.timelock,\n            c.withdrawn,\n            c.refunded,\n            c.preimage,\n            c.blocknumber,\n            c.forwardlink\n        );\n    }\n\n    /**\n     * @dev Is there a contract with id _contractId.\n     * @param _contractId Id into contracts mapping.\n     */\n    function haveContract(bytes32 _contractId)\n        internal\n        view\n        returns (bool exists)\n    {\n        exists = (contracts[_contractId].sender != address(0));\n    }\n\n}\n",
  "sourcePath": "/data/hackathon/automata/htlc-contracts/contracts/HashedTimelockERC721.sol",
  "compiler": {
    "name": "solc",
    "version": "0.5.16+commit.9c3226ce.Emscripten.clang"
  },
  "schemaVersion": "3.4.3",
  "updatedAt": "2021-12-17T04:07:48.135Z",
  "networkType": "ethereum",
  "devdoc": {
    "methods": {
      "getContract(bytes32)": {
        "details": "Get contract details.",
        "params": {
          "_contractId": "HTLC contract id"
        },
        "return": "All parameters in struct LockContract for _contractId HTLC"
      },
      "newContract(address,bytes32,uint256,address,uint256,bytes32)": {
        "details": "Sender / Payer sets up a new hash time lock contract depositing the funds and providing the reciever and terms.     * NOTE: _receiver must first call approve() on the token contract.      See isApprovedOrOwner check in tokensTransferable modifier.",
        "params": {
          "_hashlock": "A sha-2 sha256 hash hashlock.",
          "_receiver": "Receiver of the tokens.",
          "_timelock": "UNIX epoch seconds time that the lock expires at.                 Refunds can be made after this time.",
          "_tokenContract": "ERC20 Token contract address.",
          "_tokenId": "Id of the token to lock up."
        },
        "return": "contractId Id of the new HTLC. This is needed for subsequent                   calls."
      },
      "refund(bytes32)": {
        "details": "Called by the sender if there was no withdraw AND the time lock has expired. This will restore ownership of the tokens to the sender.",
        "params": {
          "_contractId": "Id of HTLC to refund from."
        },
        "return": "bool true on success"
      },
      "withdraw(bytes32,bytes32)": {
        "details": "Called by the receiver once they know the preimage of the hashlock. This will transfer ownership of the locked tokens to their address.",
        "params": {
          "_contractId": "Id of the HTLC.",
          "_preimage": "sha256(_preimage) should equal the contract hashlock."
        },
        "return": "bool true on success"
      }
    },
    "title": "Hashed Timelock Contracts (HTLCs) on Ethereum ERC721 tokens. * This contract provides a way to create and keep HTLCs for ERC721 tokens. * See HashedTimelock.sol for a contract that provides the same functions for the native ETH token. * Protocol: *  1) newContract(receiver, hashlock, timelock, tokenContract, tokenId) - a     sender calls this to create a new HTLC on a given token (tokenContract)      for a given token ID. A 32 byte contract id is returned 2) withdraw(contractId, preimage) - once the receiver knows the preimage of     the hashlock hash they can claim the tokens with this function 3) refund() - after timelock has expired and if the receiver did not     withdraw the tokens the sender / creater of the HTLC can get their tokens     back with this function."
  },
  "userdoc": {
    "methods": {}
  }
}